{
  "contractName": "Item",
  "abi": [
    {
      "inputs": [
        {
          "internalType": "contract ItemManager",
          "name": "_parentContract",
          "type": "address"
        },
        {
          "internalType": "uint256",
          "name": "_priceInWei",
          "type": "uint256"
        },
        {
          "internalType": "uint256",
          "name": "_index",
          "type": "uint256"
        }
      ],
      "stateMutability": "nonpayable",
      "type": "constructor"
    },
    {
      "stateMutability": "nonpayable",
      "type": "fallback"
    },
    {
      "inputs": [],
      "name": "index",
      "outputs": [
        {
          "internalType": "uint256",
          "name": "",
          "type": "uint256"
        }
      ],
      "stateMutability": "view",
      "type": "function"
    },
    {
      "inputs": [],
      "name": "priceInWei",
      "outputs": [
        {
          "internalType": "uint256",
          "name": "",
          "type": "uint256"
        }
      ],
      "stateMutability": "view",
      "type": "function"
    },
    {
      "inputs": [],
      "name": "pricePaid",
      "outputs": [
        {
          "internalType": "uint256",
          "name": "",
          "type": "uint256"
        }
      ],
      "stateMutability": "view",
      "type": "function"
    },
    {
      "inputs": [],
      "name": "test",
      "outputs": [
        {
          "internalType": "uint256",
          "name": "",
          "type": "uint256"
        }
      ],
      "stateMutability": "view",
      "type": "function"
    },
    {
      "stateMutability": "payable",
      "type": "receive"
    }
  ],
  "bytecode": "0x608060405234801561001057600080fd5b506040516104f93803806104f98339818101604052606081101561003357600080fd5b81019080805190602001909291908051906020019092919080519060200190929190505050816000819055508060018190555082600460006101000a81548173ffffffffffffffffffffffffffffffffffffffff021916908373ffffffffffffffffffffffffffffffffffffffff160217905550505050610440806100b96000396000f3fe6080604052600436106100435760003560e01c80632986c0e5146103195780633c8da5881461034457806389794d001461036f578063f8a8fd6d1461039a5761030a565b3661030a576000600254146100c0576040517f08c379a00000000000000000000000000000000000000000000000000000000081526004018080602001828103825260148152602001807f4974656d20697320616c7265616420706169642100000000000000000000000081525060200191505060405180910390fd5b3460005414610137576040517f08c379a000000000000000000000000000000000000000000000000000000000815260040180806020018281038252601a8152602001807f4f6e6c792066756c6c207061796d656e747320616c6c6f77656400000000000081525060200191505060405180910390fd5b346002600082825401925050819055506000600460009054906101000a900473ffffffffffffffffffffffffffffffffffffffff1673ffffffffffffffffffffffffffffffffffffffff1634600154604051602401808281526020019150506040516020818303038152906040527f800fb83f000000000000000000000000000000000000000000000000000000007bffffffffffffffffffffffffffffffffffffffffffffffffffffffff19166020820180517bffffffffffffffffffffffffffffffffffffffffffffffffffffffff83818316178352505050506040518082805190602001908083835b602083106102465780518252602082019150602081019050602083039250610223565b6001836020036101000a03801982511681845116808217855250505050505090500191505060006040518083038185875af1925050503d80600081146102a8576040519150601f19603f3d011682016040523d82523d6000602084013e6102ad565b606091505b5050905080610307576040517f08c379a000000000000000000000000000000000000000000000000000000000815260040180806020018281038252602d8152602001806103de602d913960400191505060405180910390fd5b50005b34801561031657600080fd5b50005b34801561032557600080fd5b5061032e6103c5565b6040518082815260200191505060405180910390f35b34801561035057600080fd5b506103596103cb565b6040518082815260200191505060405180910390f35b34801561037b57600080fd5b506103846103d1565b6040518082815260200191505060405180910390f35b3480156103a657600080fd5b506103af6103d7565b6040518082815260200191505060405180910390f35b60015481565b60005481565b60025481565b6003548156fe746865207472616e73616374696f6e20776173206e6f742073756365737366756c2c2063616e63656c6c696e67a26469706673582212205895ec5fed82be7c44aa03b5e61d7cffce3529d081b1f7b05e51cbb9e721025564736f6c63430006010033",
  "source": "pragma solidity ^0.6.0;\nimport \"./ItemManager.sol\";\n\ncontract Item {\n    uint public priceInWei;\n    uint public index;\n    uint public pricePaid;\n    uint public test;\n    \n    \n    ItemManager parentContract;\n    \n    constructor(ItemManager _parentContract, uint _priceInWei, uint _index) public{\n        priceInWei= _priceInWei;\n        index  = _index;\n        parentContract = _parentContract;\n        \n    \n    }\n    receive() external payable {\n        require(pricePaid == 0, \"Item is alread paid!\");\n        require(priceInWei == msg.value, \"Only full payments allowed\");\n        pricePaid += msg.value;\n        // use call value instead of transfer to get return value\n        // use low level function as need more gas for functionality in target functionality\n        // invoke the triggerPayment function and pick up return code\n\n        // no return values, just the return code\n        (bool success,) = address(parentContract).call.value(msg.value)(abi.encodeWithSignature(\"triggerPayment(uint256)\", index));\n        require(success, \"the transaction was not sucessful, cancelling\");\n    }\n    \n    fallback() external {}\n    \n}",
  "sourcePath": "/Users/stevenb/dev/SolidityLearn/trufflebox/contracts/Item.sol",
  "compiler": {
    "name": "solc",
    "version": "0.6.1+commit.e6f7d5a4.Emscripten.clang"
  },
  "schemaVersion": "3.4.3",
  "updatedAt": "2021-11-14T10:37:01.367Z",
  "devdoc": {
    "methods": {}
  },
  "userdoc": {
    "methods": {}
  }
}